:020000040800F2
:100000000080002069220008E7260008E926000891
:10001000EB260008ED260008EF260008000000008F
:10002000000000000000000000000000F1260008B1
:10003000F326000800000000F5260008F926000855
:10004000B1220008B1220008B1220008712700087F
:10005000B1220008B122000839270008B1220008A7
:10006000B1220008B1220008B1220008B122000824
:10007000B1220008B1220008B1220008B122000814
:10008000B1220008B1220008B1220008B122000804
:10009000B1220008B1220008B1220008B1220008F4
:1000A000B1220008B1220008B1220008B1220008E4
:1000B000B1220008B1220008B1220008B1220008D4
:1000C000B1220008B1220008B1220008B1220008C4
:1000D000B1220008B1220008B1220008B1220008B4
:1000E000B1220008B1220008B1220008B1220008A4
:1000F000B122000800000000B1220008B12200086F
:100100000000000000000000B1220008B122000839
:10011000B1220008B1220008B1220008B122000873
:10012000B1220008000000000000000000000000F4
:0C01300000000000000000005FF808F173
:10013C0010B5054C237833B9044B13B10448AFF315
:10014C0000800123237010BD8800002000000000F7
:10015C00C02A000808B5034B1BB103490348AFF391
:10016C00008008BD000000008C000020C02A0008A0
:10017C00364B82B01A6842F480721A609968344A1D
:10018C000A409A601A68194622F0885222F001122D
:10019C001A601A6822F480221A609A6822F47D028E
:1001AC009A600022DA60009201921A6842F0010211
:1001BC001A601A6802F002020192019A1AB9009AA6
:1001CC00B2F5A04FF5D10B6813F0020318BF012351
:1001DC000193019B012B32D14FF400611D4B1A6826
:1001EC00A3F5806322F00102C3F80024D3F80024A5
:1001FC0022F00202C3F80024D3F8002422F00402F7
:10020C00C3F800245A6A42F080525A62124A1160B2
:10021C005168C906FCD49A689A609A689A609A6880
:10022C009A609A6822F003029A609A6842F001027E
:10023C009A60064A936803F00C03042BFAD14FF032
:10024C000062064B9A6002B0704700BF0038024053
:10025C000CC0FF88003C02400070004000ED00E044
:10026C000A4B0B495A6A22F420425A62DA6A22F487
:10027C002042DA625A6A087842EA00325A62DA6A32
:10028C00497842EA0132DA62704700BF002400402C
:10029C00A50000202DE9F74F00789B4639283DD862
:1002AC002F2858D8202870D0A0F12503DCB20A2CB6
:1002BC003BD80A2B39D8DFE803F04B3838383806EE
:1002CC003838593848004AF2DD0809B148F00208BC
:1002DC000AB148F02008A54B4FEA28374FEA1822FC
:1002EC00C8F30326C8F3071AC8F303155FFA88F995
:1002FC0008F00F040420019298479C4B019A0028A7
:10030C00F8D10BF1FF3BBBF1050F75D8DFE81BF003
:10031C0040007B00C100FA0040017801B02828D0D1
:10032C000CD86D2828D06E2829D0A0F14103DCB25E
:10033C00192C15D88E4830F81380C6E7B52821D073
:10034C00FF28F2D14FF6DD78BFE74FF0C008BCE7CD
:10035C004FF43348B9E7874B303833F81080B4E7A3
:10036C006138C3B2192B10D8814BF6E74FF42048F3
:10037C00ABE74FF46C48A8E74BF21028A5E742F224
:10038C001028A2E746F284089FE74FF000089CE78C
:10039C00794B7A495869B60608405861D86902F019
:1003AC0003020840D861586A06F04056084058626B
:1003BC00D86A16430140D962B906586901F0405118
:1003CC0007F003070F4307435F61D969AD060E437E
:1003DC00DE615A6A05F040550AF0030A45EA0A053F
:1003EC0015435D62A406DA6A04F0405409F003096F
:1003FC0044EA09041443DC62614B9847614B03B037
:10040C00BDE8F04F18475C4B5F4A59691140596180
:10041C00D9691140D961596A11405962D96A0A40A7
:10042C00DA62B9013A0601F0800102F04062BF00C5
:10043C0058690A4307F00407174307433206B10112
:10044C005F6101F0800102F04062B600D8690A4396
:10045C0006F00406164306432A06A901DE6101F0E4
:10046C00800102F04062AD00586A0A4305F00405B1
:10047C00154305432206A1015D6202F0406201F0C2
:10048C008001A400D86A0A4304F004041443044312
:10049C00B1E7394B5A6922F003225A61DA6922F02A
:1004AC000322DA615A6A22F003225A62DA6A22F0D3
:1004BC000322DA62BA053F02596902F0407207F46E
:1004CC00407717430F435F61B2053602D96902F0DA
:1004DC00407206F4407616430E43DE61AA052D02E7
:1004EC00596A02F0407205F4407515430D435D6284
:1004FC00A205D96A240202F0407204F44074144339
:10050C000C4378E71C4B214A596911405961D96950
:10051C001140D961596A11405962D96A0A40DA62AC
:10052C00BA04BF02596902F4401207F4406717433A
:10053C000F435F61B204B602D96902F4401206F4AB
:10054C00406616430E43DE61AA04AD02596A02F4FA
:10055C00401205F4406515430D43A2045D62A402EC
:10056C00D96A02F4401204F44064C8E72120000860
:10057C00D82A00080C2B000800240040FCFFFFCFF9
:10058C006D0200081520000803FFFFF3FFF3CFFFF7
:10059C003E4B3F045A6907F4402722F443225A6128
:1005AC00DA6908F4405822F44322DA615A6A47EABD
:1005BC00080822F441225A62DA6A22F44122DA62F1
:1005CC005A6948EA02025A6132043603D96902F4C4
:1005DC00402206F4405616430E43DE612A042D03D6
:1005EC00596A02F4402205F4805515430D43220448
:1005FC005D622403D96A02F4402204F480547EE73D
:10060C00224B79035A6901F4803122F470325A6119
:10061C00DA6922F47032DA615A6A22F470325A6260
:10062C00DA6A22F47032DA62FA0302F40032BF039F
:10063C0058690A43BFB217430743F20371035F6162
:10064C0001F4803102F40032B603D8690A43B6B221
:10065C0016430643EA036903DE6101F4803102F4B8
:10066C000032AD03586A0A4305F48045154305432F
:10067C00E20361035D6202F4003201F48031A403F1
:10068C00D86A0A4304F4804400E700BF0024004009
:10069C00F7B50124114F124E851E35F8023F0BB1F0
:1006AC00072C01D903B0F0BD8DF807303B40B3F5F2
:1006BC00804F0CD0B3F5004F4FF0000223460AD107
:1006CC0001210DF107000134B047E4B2E5E7234600
:1006DC0001220021F5E71146F3E700BF00F0FFFF10
:1006EC00A102000810B5094C0420A0470028FBD13A
:1006FC0002460749031D013001EB830310285A60A1
:10070C00F8D1044BBDE81040184700BF2120000869
:10071C00002400401520000830B54FF4701300245D
:10072C0087B04025CDE901430C2301A8CDE9033561
:10073C00134B059498470120124B98474FF4805067
:10074C00114B98472046114B98472846104B984719
:10075C00104C114B98470120104B9847254601200F
:10076C00A0470028FBD01020A8470028FBD04FF44E
:10077C00804100200A4B98470A4B984707B030BD80
:10078C00651F0008A51F0008FD1F0008C91F0008F1
:10079C00B11F000821200008491F00083D1F000858
:1007AC00E11F0008F1060008054B10B55860054B19
:1007BC00984718B9BDE81040034B184710BD00BF4F
:1007CC0084010020951D0008290A00082DE9F04F2E
:1007DC0000263746404B91465B68020103EB00153F
:1007EC0088469B58696885B0DFF8FCA0009101939E
:1007FC00AA89F3B2934203D3384605B0BDE8F08F13
:10080C000C24009BAA689B5D5C43135D03F01801EC
:10081C00182918D143F001031355019A06EB46032E
:10082C00D05C2E4B98470146AA68BAF800C0101944
:10083C008C454389418108D90227135D67F3420334
:10084C001355002303810136D2E7BAF802C08C4558
:10085C0007D2135D022743F00603135500230381CF
:10086C00F1E7CDE902131E4B9847DFF880B01D4A23
:10087C00029918B3B8F1000F07D0039B1846C04774
:10088C000146AB68174A23445881AB6823449888C7
:10089C0090470290D847AA68029B115D02EB040BAB
:1008AC0060F342011155B9F1000F04D01846C84746
:1008BC00ABF80800C7E7ABF80830C4E7AB682344D3
:1008CC00988802939047029B1881D847AB681A5DB1
:1008DC0060F342021A55B6E7840100207D0C000833
:1008EC008D0C0008910C000874000020890C000885
:1008FC0080B485B000AF0346FB80FB88FB8104E02D
:10090C00FB899BB2013B9BB2FB81FB899BB2002B09
:10091C00F6D100BF00BF1437BD4680BC7047000045
:10092C0001223D4B30B513F8213003F00704DB08EE
:10093C0002FA03F350F824201A430B0940F8242040
:10094C00062B17D8DFE803F004172B16163F5300BD
:10095C0003234A0003FA02F48368234383600123D0
:10096C00C46803FA02F203FA01F103692243194342
:10097C00C260016130BD0324012301F00F014A0064
:10098C0004FA02F5446903FA02F22C438B404461E9
:10099C00C16984690B4322438261C361EAE7032482
:1009AC00012301F00F014A0004FA02F5046A03FA6C
:1009BC0002F22C438B400462816A446A0B4322434B
:1009CC0042628362D6E70324012301F00F014A003F
:1009DC0004FA02F5C46A03FA02F22C438B40C46297
:1009EC00416B046B0B43224302634363C2E7032353
:1009FC0001F00F014A0003FA02F4836B2343836373
:100A0C000123C46B03FA02F203FA01F1036C2243D3
:100A1C001943C2630164ADE7202B00082DE9734F25
:100A2C00464B474C5A68636A4FF0010C43F0004345
:100A3C0063629389166801930023DFF814B1009365
:100A4C009DF80030019A9342009B03F1010300933F
:100A5C0008D300203B4A536823F00043536002B094
:100A6C00BDE8708F7278E16910095BF820304FF0A7
:100A7C0003090B43E361B378E5694FEA131E5BF896
:100A8C002E1002F00F022943E1612F490CFA02F5F6
:100A9C0051F8208003F00F03B8F8001052002943DE
:100AAC00A8F800102949ADB251F8200009FA02F952
:100ABC0081880CFA02F289B221EA0501818023496E
:100ACC00033651F82E100CFA03FEB1F804801FFA0D
:100ADC008EFE1FFA88F828EA0E08A1F80480D0F8D8
:100AEC0008805B0028EA0908C0F808804FF003086A
:100AFC00D1F808A008FA03F82AEA080AC1F808A0F5
:100B0C00D0F80CA00CFA03F32AEA090AC0F80CA0DE
:100B1C00D1F80CA02AEA080AC1F80CA04583A1F868
:100B2C001AE0056825EA090949EA020202600A6826
:100B3C0022EA080848EA03030B6081E784010020DD
:100B4C0000380240047C00404400002024000020B7
:100B5C00040000202F4B2DE9734F5D682E4A2F4B5C
:100B6C004FEA001C05EB001099461860112413463F
:100B7C0000262B49013C14F0FF0442F8046B41F8A9
:100B8C00046BF7D1274A8189274E11802749406889
:100B9C0088463470019255F80C501F4ADFF89CA01F
:100BAC00DFF87CB00C8000900198E1B200888142A3
:100BBC000CD3002019691E4A1160D9691D4A1160B5
:100BCC009A6A1D4B1A6002B0BDE8708FD9F80010FC
:100BDC00009810F804C088680C2101FB0CF1415CF2
:100BEC0011F0180F12D010466978D0475846A978E2
:100BFC00D0470121084B28781A468140B8F80000EC
:100C0C000143A8F8001031780131317003350134FB
:100C1C00CAE700BF8401002014010020100100204D
:100C2C00CC000020B8000020B6000020B40000204A
:100C3C00A8000020AC000020B00000202D09000806
:100C4C00084B01215A88002330B5074C013201FAB8
:100C5C0003F5854318BF44F8232001330B2BF6D141
:100C6C0030BD00BF740000205801002000207047E8
:100C7C00014B33F8200070475801002000207047CA
:100C8C0001207047401A00B27047401A80B270477A
:100C9C0000207047012070472DE9704F88B072B664
:100CAC0000210324954B96485B681A689D89CBB24A
:100CBC00AB4201F10101C0F0008162B6914D924C42
:100CCC00924E21682A6873680A4323EA0203736010
:100CDC006A686168B3680A4323EA0203B36072B6B8
:100CEC00DFF848A22169BAF814302A699BB20A438A
:100CFC0023EA0203AAF81430A168AA68DAF80030D3
:100D0C000A4323EA0203E168EA68DFF824920A4303
:100D1C001343CAF80030B9F81430E169EA699BB2A0
:100D2C000A4323EA0203A9F8143061696A69D9F805
:100D3C0000300A4323EA0203A169AA69DFF8F4B17F
:100D4C000A431343C9F80030BBF81430A26A99B2B5
:100D5C00AB6A206A134321EA03032A6AABF8143006
:100D6C00DBF800300243616A23EA02026B6A0B4330
:100D7C001343CBF8003062B63220654B984772B6FD
:100D8C00A268AB68DAF80010134321EA0303CAF82F
:100D9C00003062696B69D9F80010134321EA030330
:100DAC00C9F80030226A2B6ADBF80010134321EAE1
:100DBC000303CBF8003022692B69BAF814101343E3
:100DCC000B439BB2AAF81430E269EB69B9F8141022
:100DDC0013430B439BB2A9F81430A26AAB6ABBF85D
:100DEC00141013430B439BB2ABF8143062B6726809
:100DFC002B6813437360B3686A681343002211466F
:100E0C00B360009272B6404DDAF80000EB68034311
:100E1C00CAF80030D9F80000AB690343C9F80030B8
:100E2C00DBF800006B6A0343CBF8003062B6BAF80B
:100E3C00103038489BB20293029D03681D421EBFBE
:100E4C0029468B430360B9F8103033489BB20393A7
:100E5C00039D036818BF01211D4218BF2946BBF82A
:100E6C0010501CBF8B430360ABB22C480493049D01
:100E7C00036818BF02211D425ED0042123EA05033A
:100E8C0003604FF0000E264BCDF818E01B8807933B
:100E9C00244BB3F800C0244B1B681868C31C019387
:100EAC0007985FFA8EF38342C0F09180069B002B6B
:100EBC0044D01C4BA3F800C040E0537803321E0909
:100ECC0050F826C003F00F03DCF800605B0004FA56
:100EDC0003F326EA0303CCF8003012F8013C1E0998
:100EEC0050F826C003F00F03DCF800605B0004FA36
:100EFC0003F326EA0303CCF80030D8E68401002083
:100F0C002400002014010020CC000020047C0040B0
:100F1C00FD080008A8000020AC000020B000002054
:100F2C00B8000020B4000020100100200000024096
:100F3C0000040240000802400029A2D1009B0133AA
:100F4C009BB2009372B6DAF80000A36820EA0303A0
:100F5C00CAF80030D9F80000636920EA0303C9F825
:100F6C000030DBF80000236A20EA0303CBF80030E2
:100F7C0062B6736825682B437360B368606803437B
:100F8C00B360736823EA05037360B36823EA000057
:100F9C00464BB0605B8800988342454B50D2188812
:100FAC00444B984700BF72B6002401204FF0030C4D
:100FBC00414B424E5B681968B3F80CE0E3B27345E1
:100FCC0004F1010441D362B608B0BDE8708F012072
:100FDC00019B13F8033C984600FA03F398B203EA1A
:100FEC000C038342059021D10125019B13F8023C8F
:100FFC0003F00F001B0905FA00F0012B05461BD06E
:10100C00022B1BD00298002B08BF024628469043A7
:10101C000CD12B48009D40F8285005982CEA000C68
:10102C00012000FA03F321EA03010690019B0EF163
:10103C00010E0333019333E7039AE7E7049AE5E7DC
:10104C001B88002B7FF4DEAEADE74B78033103F049
:10105C000F021B0956F8238000FA02F39BB2A8F882
:10106C001A3011F8015C520005F00F032D0956F8E7
:10107C00255000FA03F91FFA89F9A5F81A90D8F847
:10108C0000900CFA02FA29EA0A0900FA02F249EA7B
:10109C000202C8F800202A685B000CFA03F822EA66
:1010AC00080200FA03F313432B6087E77400002057
:1010BC00B40000204D0C0008840100202400002006
:1010CC0058010020704700002DE9F74F0024064618
:1010DC009146A046A3462746012503688A461F4928
:1010EC000193B6F804E0019A5FFA84FCF44502EB34
:1010FC00C40006D3002D0CBF5046484603B0BDE8D3
:10110C00F08F8847164B1549D8680078203803288B
:10111C0008D81A6910680078022808D1B2F80CB007
:10112C00D2F8088000205FFA80FCDC4501D3013442
:10113C00D7E7B8F908C0BCF1000F0CD007DA002FC4
:10114C0009DC4FF0FF3708F10C080130EBE7002FFA
:10115C0001DB0127F7E70025F5E700BFC51B0008F9
:10116C00840100202DE9F74F4FF0000A05460E468A
:10117C00D046544657460368019381F0FF03013370
:10118C001FFA83F9A988019B5FFA8AF28A4203EB62
:10119C00CA0002D303B0BDE8F08F1B4B98471B4924
:1011AC00CA681278203A032A08D80A6911680978A3
:1011BC00022909D197899468DFF85C804FF0000B05
:1011CC005FFA8BF1B94202D30AF1010ADAE7B4F9FA
:1011DC0008100F4BA088984700027043B4F804C065
:1011EC00A1790C4B01EB0C2101FB0900010A000C4D
:1011FC00A080A17120469847012801D10020C0474A
:10120C000C340BF1010BDBE7C51B0008840100203B
:10121C00970C00089D0C0008F1140008C38810B549
:10122C0003F03F03012B044623D1807A50BB174AAD
:10123C00116821F00201116015490988A18111681A
:10124C0041F002011160A37260724FF4FA70114BFD
:10125C0004F10C01984788B90123637214220A2106
:10126C000D4B204698470D4B0146204698470020D1
:10127C0003E0002383724372012010BD637A002BBC
:10128C00FAD0EBE7637A002BE8D1DEE710E000E060
:10129C0084010020E91C0008D51000087111000819
:1012AC00074AD3681B7803F0FD03202B01BF136999
:1012BC001A68DB6912780CBF13F8320000207047F3
:1012CC0084010020084B09481A6822F002021A60B7
:1012DC00026980781268117960F3050111711A683E
:1012EC0042F002021A60704710E000E08401002016
:1012FC00094B70B51B690C269C689D890023DAB2DA
:10130C00AA4206FB03F103F1010300D370BD625C3A
:10131C0060F3C4026254F2E7840100201322054BEF
:10132C0000201B691B681A701A7942F040021A716E
:10133C00014B184784010020FD12000870B50022F3
:10134C0002200C26094B1B699C689D89D3B2AB42C9
:10135C0006FB02F100D370BD635C013213F0010F88
:10136C001EBF6FF3000300206354EFE784010020DD
:10137C0038B5114B9847114C20B123691B681B7869
:10138C00132B18D1226913681D78E3681B7803F0BE
:10139C00FD03202B04D1D36903EBC5035B6898478D
:1013AC0023691A681378AB4213790CBF6FF3861359
:1013BC0043F04003137138BD491300088401002029
:1013CC000A4B30B51B690C249D6899890023DAB24D
:1013DC008A4204FB03F001D3022030BD2A5C0133A6
:1013EC00C2F341029207F2D50020F6E784010020F7
:1013FC002DE9F8432C4D2D4E2F6932793C68E3785A
:10140C00934203D9013BE370BDE8F883284B98471E
:10141C0040B97B689B79E37013B90D232370F3E714
:10142C000E23FBE7BC680027DFF88C802969F8B233
:10143C00B1F80CC00A686045D3780CD333BB8B6809
:10144C001C490D8800210C46C8B2844501F10101EC
:10145C0022D8022318E03179B4F80A9099420AD1C3
:10146C0049462046C04720B1A4F804900C340137FB
:10147C00DCE7A080C8E7A3884B449BB24B45A38014
:10148C00F4D20023A3800D231370BDE7013BDBB224
:10149C00D370002BB8D1D2E798889C7128419880E2
:1014AC001C810C33D0E700BF8401002074000020A5
:1014BC00CD130008BA000020A10C0008084B10B591
:1014CC001B699A689C8900231846D9B2A14203F182
:1014DC00010300D310BD908090710C32F5E700BF72
:1014EC0084010020002270B5114D04462B690320A5
:1014FC001B681A701A7942F040021A710D4B98470A
:10150C000D4B0E4A9988042905D010290ED00821BC
:10151C009980032100E0022111802A691879126850
:10152C000444D470064BBDE8704018470421F3E71F
:10153C0084010020FD12000874000020BA00002075
:10154C00C914000832220A4B28211B690A205B6847
:10155C001A709A700322DA701A715A719A710722F2
:10156C001A72012259705872DA71024B184700BF77
:10157C0084010020F114000807B5214B984778B975
:10158C00204B1B691A68D37823B90D23137003B051
:10159C005DF804FB013BDBB2D370002BF7D1F4E711
:1015AC00194B98478DF807009DF8073003F05F033F
:1015BC008DF807309DF80730013B072B1AD8DFE870
:1015CC0003F0040A190F1919191402220D4B1B6987
:1015DC001B681A70DBE70B4B06221B691B68F8E7CC
:1015EC00084B0A221B691B68F3E7064B0C221B698C
:1015FC001B68EEE70020054B03B05DF804EB1847C1
:10160C00CD13000884010020AD120008F11400086D
:10161C00064BB0F908001B691B6933F81130B3F5A0
:10162C00807F1CBF5843000A00B270478401002021
:10163C000021DFF8ECC12DE9F04FDCF81050724FAF
:10164C002A68B5F80C9092F804E07048704B714E13
:10165C00714C85B061F3C71EB9F1020FD5F808A023
:10166C0080463980318021800170197082F804E045
:10167C00CDF80CC00197029303D8022005B0BDE849
:10168C00F08FDDF808B0654B50469847019B20EA77
:10169C00E070B3F900E000B28645B6F900C05B4BD0
:1016AC0064DA5D4FA6F800E0A7F800C0019F38800F
:1016BC00187819708BF80000481CC1B289450AF1E2
:1016CC000C0AE0D86968B6F900604B785B08013BFE
:1016DC009E42D2DB019B0298B4F800C01F880078B0
:1016EC0098F80030A7EB0C0709FB0309288BBFB255
:1016FC0078436B69A6EB0C0633F919E0B3B280B2F0
:10170C00DE19B0FBF6F30398BEF1000FC068D8BF2A
:10171C00CEF1000E0078C8BF03EB4E03A0F1200001
:10172C00D8BFC3EB4E0301286C8B1BB22CD8002BFB
:10173C0098B2D6BFC4F58073031B1B181BB283F37E
:10174C00080392F905405078002CDDB240DA85424E
:10175C002DD92C1AFF2C2AD04C7A2044984215DD16
:10176C005379C97961F30503537186E7604505DD4B
:10177C00A4F800C030808BF800109DE7B4F900C0CD
:10178C008445B8BF208097E7DBB2DAE7507900F1E7
:10179C003F0464F3050086065071C4B27FF46DAF4C
:1017AC00C87904F0400400F03F002043507155709C
:1017BC00097AC1F108010B419178DBB299423FF4EF
:1017CC005CAF93701379002043F08003137155E7DD
:1017DC008542ECD2441BFF2CE9D04C7A1C44A0422D
:1017EC00BEDB547904F13F0060F30504A00654718C
:1017FC00E6B27FF442AFC87906F0400400F03F0037
:10180C0060F07F00D1E700BFBC000020C2000020C8
:10181C00C3000020BE000020C00000201D160008E0
:10182C00840100202DE9F04100220C270A4BDFF83F
:10183C002C801B6944429E689D89D1B2A94207FB4A
:10184C00026002D30220BDE8F081C047A04202F141
:10185C000102F2DC0020F6E7840100201D160008CE
:10186C0010B50E4B98470E4B1B691C6810B9022320
:10187C00237012E05B68012198780A4B9847002886
:10188C00F5D1E37823B9BDE810400020064B18478A
:10189C00013BDBB2E370002BF5D010BDCD1300087B
:1018AC008401002031180008F11400082DE9F041E2
:1018BC00002204460C270A4BDFF828801B699E681F
:1018CC009D89D1B2A94207FB026002D30220BDE878
:1018DC00F081C047A04202F10102F2DB0020F6E7E2
:1018EC00840100201D16000870B5184B9847184B42
:1018FC001D696C6840B92B68A279DA7012B90D2297
:10190C001A7070BD0F22FBE701212078114B98470C
:10191C0058B92B682279DA702AB90A221A70BDE8F4
:10192C0070400D4B18470B22EAE70121A0780B4BB6
:10193C0098470028E5D12B68E278DA701AB9BDE82F
:10194C007040074B18470122DAE700BFCD1300089F
:10195C0084010020B9180008D112000831180008C1
:10196C00F114000810B50F4B98470F4B1B691C68FE
:10197C0010B90223237013E05B68012118780B4B1C
:10198C0098470028F5D1E3782BB90A232370BDE8DA
:10199C001040074B1847013BDBB2E370002BF4D02F
:1019AC0010BD00BFCD13000884010020B918000839
:1019BC00D11200082DE9F041002204460C270A4BF5
:1019CC00DFF828801B699E689D89D1B2A94207FB6C
:1019DC00026002D30220BDE8F081C047A04202F1B0
:1019EC000102F2DD0020F6E7840100201D1600083C
:1019FC0010B50D4B98470D4B1B691C6810B90A2389
:101A0C00237010BD5B6801215878094B984700285A
:101A1C00F5D0E3780BB90223F2E7013BDBB2E370BC
:101A2C00002BEED1F7E700BFCD1300088401002096
:101A3C00C119000810B50D4B98470D4B1B691C685C
:101A4C0010B90C23237010BD5B6801215878094B29
:101A5C0098470028F5D0E3780BB90223F2E7013B55
:101A6C00DBB2E370002BEED1F7E700BFCD1300081B
:101A7C0084010020C119000873B5204B9847204CF5
:101A8C0025696E6840B92B68B279DA7012B90D22EB
:101A9C001A7014E01122FBE701217078194B98475A
:101AAC0020BBE3681B7803F0FD03202B16BF164BFD
:101ABC002B6ADB689B68984718B9144B984702B09F
:101ACC0070BD114B9879831E3D2BF8D823690DF10D
:101ADC0007011B681B79C3F305038DF807300C4B0A
:101AEC0098470028EBD10B4B9847E8E72B687279A5
:101AFC00DA700AB90222CBE70422C9E7CD13000839
:101B0C0084010020C119000874000020D1120008C3
:101B1C00391D0008F114000873B5204B9847204C70
:101B2C0025696E6840B92B68B279DA7012B90D224A
:101B3C001A7014E01222FBE701217078194B9847B8
:101B4C0020BBE3681B7803F0FD03202B16BF164B5C
:101B5C002B6ADB689B68984718B9144B984702B0FE
:101B6C0070BD114B9879831E3D2BF8D823690DF16C
:101B7C0007011B681B79C3F305038DF807300C4B69
:101B8C0098470028EBD10B4B9847E8E72B68727904
:101B9C00DA700AB90222CBE70522C9E7CD13000897
:101BAC0084010020C119000874000020D112000823
:101BBC00391D0008F1140008044AD0600378203B5A
:101BCC00032B9CBF43681361704700BF8401002046
:101BDC002DE9F0470024054626464FF00109076819
:101BEC00DFF85080DFF850A00472AA88E3B2934269
:101BFC0007EBC40002D3EE80BDE8F087C04717F8AE
:101C0C00343003F0FD03202B11D1DAF810301B6AAD
:101C1C001B689847DAF810301A681179490648BFE2
:101C2C0085F808901278DB6913F832301E430134C2
:101C3C00DBE700BFC51B0008840100202DE9F0473D
:101C4C000024054626464FF001090768DFF850804E
:101C5C00DFF850A00472AA88E3B2934207EBC400E9
:101C6C0002D3EE80BDE8F087C04717F8343003F09C
:101C7C00FD03202B11D1DAF810301B6A5B689847F2
:101C8C00DAF810301A681179490648BF85F80890BF
:101C9C001278DB6913F832301E430134DBE700BFE6
:101CAC00C51B0008840100200A490B4A0B8801332C
:101CBC000B80138801339BB2B3F5FA6F138008D3F2
:101CCC0000208B7810800133DBB23F2B94BF8B70DC
:101CDC008870704784010020C4000020114B1A68E2
:101CEC0022F002021A6028B91A68022042F002029D
:101CFC001A6070470C4B40001A880B880B8880B216
:101D0C00D31A9BB29842074B06D80A801A68002057
:101D1C0042F002021A6070471A68012042F0020277
:101D2C001A60704710E000E084010020144B10B5DD
:101D3C001A6822F002021A6028B902201A6842F0CE
:101D4C0002021A6010BD0F4B9A780B78934293BF26
:101D5C000B780C7802F14003D31A88BF1B1BDBB243
:101D6C008342074B06D30A701A68002042F0020225
:101D7C001A60E7E71A68012042F002021A60E1E7F4
:101D8C0010E000E0840100204FF4FA620A4B1B685B
:101D9C00B3FBF2F3013BB3F1807F0AD2F021074A87
:101DAC0000205360064B83F82310072390601360C8
:101DBC0070470220704700BF0000002010E000E0D8
:101DCC0000ED00E070B50126017801F01F039E4084
:101DDC00C3784D09CBB10F4BDA684378D243C2F3C9
:101DEC000222C2F10404E4B2A340DCB20F2343FA92
:101DFC0002F2837813402343074A1B01DBB21144E0
:101E0C0081F8003342F8256070BD034B203543F850
:101E1C002560F9E700ED00E000E100E0027930B563
:101E2C008379056802F18042E94302F5823223B3DB
:101E3C00144B1C680C401C605C6821405960116894
:101E4C00294311609968026821EA02019960D968F6
:101E5C0021EA0201D9604179102906D19968114310
:101E6C009960D9680A43DA6030BD01F1804303F50B
:101E7C00823319680A431A60F6E713680B40136043
:101E8C00F2E700BF00040140014B5861704700BFEE
:101E9C00000401402DE9F0410022012703260B68C4
:101EAC0007FA02FE3EEA03032BD1036891F804C043
:101EBC00540006FA04F86FEA080523EA08080CFA3D
:101ECC0004F30CF1FF3C43EA0803BCF1010F03607F
:101EDC000ED883682B404D79A5401D4385608388BF
:101EEC009BB223EA0E058B7993409BB22B438380E4
:101EFC00C36806FA04F523EA0505CB79A3402B4306
:101F0C00C3600132102ACAD1BDE8F08110B50F248C
:101F1C0001F00703C90800EB8100016A9B009C409B
:101F2C0021EA04010162016A9A400A43026210BD6F
:101F3C00014B1860704700BF008004424FF4004210
:101F4C0004498B68013A03F0200301D0002BF8D030
:101F5C00704700BF0024004010B50D4C636823F09F
:101F6C007F7363606268D0E900310B431343636095
:101F7C00084B9847236823F07E0323602268D0E93E
:101F8C0002310B43134302691343236010BD00BF9E
:101F9C0000240040491F0008014B1860704700BF27
:101FAC001C800442044B596821F0700159605A6836
:101FBC0002435A60704700BF00240040044B59682C
:101FCC0021F4607159605A6802435A60704700BF2F
:101FDC0000240040054A10B5546824F47834546049
:101FEC0053680B430343536010BD00BF00240040F3
:101FFC00044B596821F4E05159605A6802435A6005
:10200C00704700BF002400400122014B1A6070474A
:10201C0008810442034B9B68034214BF012000203B
:10202C00704700BF00240040014B1860704700BF90
:10203C0020000E420022024B1A701870704700BF2D
:10204C0002380240034A536823F46043034353604D
:10205C00704700BF00380240014B1860704700BF4A
:10206C00000047420022024B1A701870704700BFE4
:10207C0035380240034A936823F00303034393600B
:10208C00704700BF0038024000F44032B2F5403FC8
:10209C00084B06D1196800F0C04021F0C04108433C
:1020AC001860596B21F440315963596B0A435A63D8
:1020BC00704700BF00380240014B1860704700BFEA
:1020CC00D8064742014B1860704700BFDC064742F8
:1020DC00044BDA6911B11043D861704722EA000051
:1020EC00FAE700BF00380240044B1A6A11B11043E2
:1020FC001862704722EA0000FAE700BF003802407D
:10210C00044B5A6A11B110435862704722EA00001E
:10211C00FAE700BF003802404309012B054B00F0E1
:10212C001F000CBF1B685B6B23FA00F000F0010072
:10213C00704700BF00380240054AC0F30F10D36847
:10214C0040F0800003F0800363EA0003D360704723
:10215C000028004010B50F2401F0030301F0FC012E
:10216C0001F1804101F580318A689B009C4022EA94
:10217C0004028A608A6898401043886010BD000091
:10218C000388B0F1804F9BB20AD0114A904207D01D
:10219C0002F58062904203D002F58062904203D136
:1021AC004A8823F0700313430A4A904208D002F580
:1021BC00806290421FBF23F440730A899BB2134381
:1021CC0003804B68C3620B880385012383827047AD
:1021DC000004004000100040038821B19BB243F082
:1021EC0080030380704723F080031B041B0CF8E76B
:1021FC00038821B19BB243F001030380704723F0A5
:10220C0001031B041B0CF8E7038C30B523F01003FF
:10221C001B041B0C0384038C028B0C8822F4E042FD
:10222C001204120C4D8842EA042223F020030C897C
:10223C001B041B0C2C43496843EA041392B29BB257
:10224C0081630283038430BD038B23F400631B047E
:10225C001B0C43EA01239BB203837047002103E06C
:10226C000B4B5B58435004310A480B4B42189A42B3
:10227C00F6D30A4A02E0002342F8043B084B9A4288
:10228C00F9D3FDF775FF00F0F1FB00F0A9F97047E9
:10229C00D02D0008000000208800002088000020BD
:1022AC0044020020FEE7F0B542F21075B0FBF5F6E3
:1022BC004FF47A7205FB1607B7FBF2F6642402FBA7
:1022CC001676B6FBF4F70A2304FB1766B6FBF3F796
:1022DC0003FB1767C01BB0FBF3FCBCFBF2F602FB65
:1022EC0016CCBCFBF4F604FB16C6B6FBF3FC03FBE6
:1022FC001C66801BB0FBF4FEBEFBF4FC04FB1CEC68
:10230C00BCFBF3F403FB14C4001BB0FBF2F2B2FBF6
:10231C00F3FC03FB1C22801AB0FBF5F0303730368F
:10232C00303402F1300330300F81CE808C804B8002
:10233C000880F0BD38B51D4D01201D4B98472C462B
:10234C002120A8470028FBD001201A4B98474FF4B6
:10235C004040194B984701213F20184B98470121C9
:10236C001748184B9847012140F20120164B98470B
:10237C00164B01209847164D0120A8470020A8476E
:10238C000120144B98474920A0470028FBD04FF45C
:10239C008030114B98470120104B98470020104B70
:1023AC0098473120A04700B1FEE738BD2521000831
:1023BC00652000088120000851200008DD2000085D
:1023CC00000200900D210008F520000835200008BF
:1023DC00D12000087120000895200008C5200008B5
:1023EC00412000082DE9F04F012187B00420704BEB
:1023FC009847012102206F4B98474FF0010A4FF08C
:10240C00000B4FF440736C4FDFF8D081384602A9B3
:10241C00ADF80C308DF80FB0CDF808A0C047594678
:10242C005846664B98474FF4006304A8ADF8143037
:10243C00634BCDF810A08DF816A09847614B01A8FE
:10244C000193614B98478022604D614B284602A94D
:10245C00604CCDE90223C047022228460721A04741
:10246C00402640F201134FF40059284602A9CDE949
:10247C000263C0476E83584E02A93046CDF80890CF
:10248C00C04748F20E73A6F818904FF00209384670
:10249C0002A902938DF80C90C047514638460B2286
:1024AC00A047494638460B22A04738460B22032149
:1024BC00A04738460B220821A04738460B22092199
:1024CC00A04738460B220A21A0470B2238460F2181
:1024DC00A0474FF63873284602A902938DF80C904A
:1024EC00C04728460B220321A04728460B22042173
:1024FC00A04728460B220521A04728460B2208217D
:10250C00A04728460B220921A04728460B220A2166
:10251C00A0470B2228461146A04728460B220C2127
:10252C00A04728460B220D21A04728460B220E213E
:10253C00A0470B2228460F21A04740F6CF73304608
:10254C0002A902938DF80C90C047594630460B22D5
:10255C00A047514630460B22A047494630460B2235
:10256C00A04730460B220321A04730460B22062100
:10257C00A04730460B220721A04730460B220821EA
:10258C00A04730460B220921A04730460B220A21D6
:10259C00A0470B2230461146A04710230293032379
:1025AC00384602A98DF80C30C04707B0BDE8F08F53
:1025BC000D210008DD200008000002406121000808
:1025CC00291E0008060F0F01D11D0008000402404F
:1025DC0002000001191F000800080240A11E00089B
:1025EC0080B5204B9847204B9847002484F31088E3
:1025FC001E4B98471E4B98471E4B1F4A1B681F4982
:10260C00B3FBF2F31E4A013B9BB2138040F2F31270
:10261C000B801C481C4B4A600C814C8098471B4912
:10262C001B4B1848C1E900341A4B0C819847082100
:10263C001448194B984701211248184B984701210F
:10264C00174B1048984701224021164B164D1A7013
:10265C00164A174E174F2C705183B04700B9B84724
:10266C002C70FAE741230008F12300089127000899
:10267C002507000800000020A0860100D0010020E2
:10268C00C6000020000800408D210008E001002059
:10269C00600001001522000855220008E521000801
:1026AC00FD21000898010020A40000200004024035
:1026BC00B5270008592800080249034B4860034815
:1026CC00184700BFE0010020152200080008004058
:1026DC00004B18472913000870477047FEE7FEE7C8
:1026EC00FEE7FEE7FEE7FEE7FEE70000004B1847BB
:1026FC00B51C000801220A4B0A491A704FF4034218
:10270C000B8ADB0700D47047013AF9D106490B78E4
:10271C000133DBB2022B94BF0B700A70704700BF01
:10272C00A400002000000240C800002008B50123CE
:10273C0083F31088074A127842B1074B984701205F
:10274C00064B9847002383F3108808BD044A137086
:10275C00F5E700BF9801002001270008951E00082E
:10276C00C401002010B54FF48040044B9847BDE8DD
:10277C0010404FF48010024B184700BF4521000851
:10278C00951E000810B50448044B9847BDE810404E
:10279C000348044B184700BF64000020DD1B0008F1
:1027AC00CC2C0008B507000870B51B4E1B4D3378B8
:1027BC0033B91B4B287898471A4B98470123337031
:1027CC00194B9847044640B902460146174B2878E6
:1027DC0098472B78347001332B702E78012E17D13B
:1027EC0000241348134B2C7098471148124B9847F0
:1027FC0064201249124B9847054658B9114B0C48A6
:10280C009847114B08B9186070BD28461E60FBE74D
:10281C000120F9E72046F7E7C9000020CA00002094
:10282C00610B0008A50C0008790C0008D9070008FA
:10283C0064000020491C0008D1100008F0010020A1
:10284C00E91C000829120008F40100202DE9F04FC2
:10285C00704E85B03378012B58D0022B0CBF4FF043
:10286C00C8084FF47A786C4D6C4F29783A789942B5
:10287C0000D16AB14FF02013CDE901330393684BBB
:10288C001978587821F00A0120F00A005870197054
:10289C00644B1C684CB1644B9978614B762938D9E0
:1028AC000424597841F0080159709442DFF8A8B11A
:1028BC00DFF8A8A1DFF8A89159D0A21A012A5B4B26
:1028CC003DD1002C41D01A7801321A7093F90020B6
:1028DC00BBF8000082EAE271A1EBE271C9B20129F6
:1028EC0008BFAAF80000022A514930DD01220A7003
:1028FC0000221A704F4B18804F4B4FF4AF70984713
:10290C0001234B4989F80030002381E04FF4FA7819
:10291C00A9E7502905D91978032441F00801197049
:10292C00C3E705298BBF5978197841F0020141F0B2
:10293C0002018BBF0224012459701970B5E70132D2
:10294C0003D114B11A78013ABFE70022BDE7023275
:10295C005DDADFF810C1BCF8142092B282F04002AC
:10296C00ACF8142000221A700B78002BC2D1BBF8E3
:10297C000030BAF800209A1AB2EB480FC2BF0021FF
:10298C002A4A117099F800205AB12A4A12889B1AC7
:10299C0041F27072934204DD0020274B89F800004D
:1029AC0098473B78A34203D0244B9847244B984735
:1029BC0032782B789A4224D00A2001A900FB08F027
:1029CC00204B9847BDF8043001A86FEA43436FEAE7
:1029DC005343ADF804302023ADF808301A4B984718
:1029EC000022042311461948DFF87C80C0470022DE
:1029FC00052311461648C0470022062311461548E8
:102A0C00C04733783C702B7005B0BDE8F08F0023C5
:102A1C000B70ACE7C80000208400002020020020CE
:102A2C00A5000020F4010020300200202C02002020
:102A3C002B0200201E020020C52600086D02000893
:102A4C0015200008B32200089D060008C62C0008BB
:102A5C00C82C0008CA2C0008840100202202002087
:102A6C001C02002000040240A102000870B50026E0
:102A7C000C4D0D4C641BA410A64209D100F01AF8A1
:102A8C0000260A4D0A4C641BA410A64205D170BD49
:102A9C0055F8043B98470136EEE755F8043B984748
:102AAC000136F2E7C82D0008C82D0008C82D000813
:102ABC00CC2D0008F8B500BFF8BC08BC9E4670478A
:0C2ACC00F8B500BFF8BC08BC9E4670477F
:102AD80000FE1467001D1447009D009C003F00FA8B
:102AE8001400005341980019485A095A005F00FC25
:102AF800015F01FC00AF1404005BC018815AC900D3
:102B08005800C005005F004200F5006700EA00AF0A
:102B180000BF004600FF00EF0000000008000000B2
:102B28001000000018000000000000000000000075
:102B3800300000003800000049000000510000008B
:102B4800590000007900000000000000310000007A
:102B5800390000004100000040000000480000006B
:102B68008100000000000000210000002900000092
:102B7800D9000000E1000000000000000000000093
:102B88000000000000000000900000009800000015
:102B9800A0000000A800000050000000580000003D
:102BA800600000006800000070000000780000006D
:102BB80001000000090000001100000019000000D9
:102BC800E900000000000000000000000000000014
:102BD80000000000000000000000000000000000ED
:102BE80000000000000000000000000000000000DD
:102BF80000000000000000000000000000000000CD
:102C080000000000000000000000000000000000BC
:102C180000000000000000000000000000000000AC
:102C2800000000000000000000000000000000009C
:102C3800000000000000000000000000000000008C
:102C4800000000000000000000000000000000007C
:102C5800000000000000000000000000000000006C
:102C6800000000000000000000000000000000005C
:102C7800D8000000E0000000E8000000F0000000BC
:102C88008000000089000000910000009900000009
:102C9800A1000000A9000000B1000000B900000078
:102CA800C1000000C9000000D10000000000A0FF22
:102CB800A0002000000060FF20FF600000007300FB
:102CC80065006300DF2C0008DC2C0008F8010020F8
:102CD8000300000000010201070608252402111064
:102CE800000200010003000030020020380200202A
:102CF800F801002003000000E82C0008B42C0008AC
:102D080080008000202D0008142D000851150008AF
:102D18007D1300083D16000810000000FD13000890
:102D2800300000006D18000801000000F5180008C8
:102D3800230000000000000025000000FD19000825
:102D480029000000411A00080200000000000000ED
:102D58002200000000000000260000000000000023
:102D68002A0000000000000004000000851A000886
:102D7800240000007119000808000000251B000845
:102D880080000000DD260008B0000000851500085E
:102D9800A100000085150008A200000085150008A4
:102DA800A400000085150008A8000000851500088B
:102DB80040000000E526000820000000F02C000874
:042DC800610100089D
:042DCC003D010008BD
:102DD0000024F400010000000200000004000000D4
:102DE000080000001000000040000000800000000B
:102DF00020000000000002400004024000080240E1
:102E0000000C02400010024000180240001C02406A
:102E100000140240107C0040127C0040147C0040F2
:102E2000167C0040187C00401A7C00401C7C00404E
:102E30001E7C0040C02D00080100000000000000C2
:102E4000000000003200A00F08000A00202D00083A
:082E5000142D00080100000030
:040000050800226964
:00000001FF
